:020000040000FA
:10000000B201F628A501A400B3172730A3001030D1
:1000100015200330A300E8301520A301643015201B
:10002000A3010A30152024082028A2002508A100D9
:100030002408A000BF202008031DB313B31B080031
:10004000303EA70086100610061083168610061094
:100050000610880183122708B21849283A30A100F7
:10006000FC3084203330A6005C201030A1006830C2
:1000700084205C20643083205C20383048200C30A1
:1000800048200130482006304820B214270849286B
:100090003214A600321C57280610033C031C5C28AF
:1000A0005C200730A100D0308420031408003214F3
:1000B000FE3C0319F1280614861426088800321025
:1000C00086103230832003140800A000A00DA00D7C
:1000D000200D383941389F000030A1003230842093
:1000E0001F151F197128A1011E08F128A301A200E4
:1000F000FF30A207031CA307031CF1280330A10053
:10010000DF3084207828A101E83EA000A109FC305E
:10011000031C8D28A00703188A28A0076400A10FDC
:100120008A2820189328A01C9728000097280800E8
:10013000013EA7000A30A200A301BF20A70B9D2803
:1001400024080800A2000130A828A2000630A82830
:10015000A80023082102031DAF2822082002043032
:1001600003180130031902302805031DFF30F12860
:100170000038031DFF300405031DFF30F128A501E1
:10018000A4011030A600210DA40DA50D2208A40283
:100190002308031C230FA5020318D5282208A4074F
:1001A00023080318230FA5070310A00DA10DA60B0C
:1001B000C3282008F1281030A800A101A001A70C35
:1001C000A60C031CE9282208A00723080318230F04
:1001D000A107A10CA00CA50CA40CA80BDF282408D7
:1001E000F1288313031383126400080064308A012A
:1001F00076208316013085009F01FE3083128A012C
:10020000212040308A0121201C308A0121201C300D
:100210008A0121201F308A0121201F308A012120DC
:100220001F308A0121201C308A0121201C308A01C4
:1002300021201C308A012120FE308A0121204830F3
:100240008A0121201C308A01212014308A012120BA
:1002500017308A01212011308A01212017308A01AC
:10026000212014308A0121201C308A012120FE30F7
:100270008A01212050308A0121200C308A0121205E
:1002800004308A01212007308A01212001308A01AF
:10029000212007308A01212004308A0121200C30DE
:1002A0008A012120FE308A01212058308A01212034
:1002B0001F308A0121201E308A0121201E308A0130
:1002C00021201E308A0121201E308A0121201E306B
:1002D0008A0121201F308A0121201E308A0121201D
:1002E000FE308A01212060308A0121201F308A01DE
:1002F00021201C308A0121201C308A0121201C3041
:100300008A0121201C308A0121201C308A012120F1
:100310001F308A012120FE308A01212068308A01A5
:1003200021201F308A01212018308A012120183015
:100330008A01212018308A01212018308A012120C9
:1003400018308A0121201F308A0121201F308A01A4
:100350002120FE308A01212070308A0121201F30A7
:100360008A01212010308A01212010308A012120A9
:1003700010308A01212010308A01212010308A019A
:1003800021201F308A0121201F308A012120FE30C8
:100390008A01212078308A0121201F308A01212002
:1003A00018308A01212018308A01212018308A0152
:1003B000212018308A01212018308A0121201F3085
:1003C0008A01212000308A016520BE003E08A60077
:1003D000A7018830A200A3018A01DB20B80025080C
:1003E000B9003808A0003908A100FF30A200A3011D
:1003F0008A01BF20B8002108B9003808A0003908D8
:10040000A10002308A019820BF003808A0003908F6
:10041000A10001308A019820C0003808A0003908E6
:10042000A10000308A019820C100FE308A012120FD
:1004300001308A01212041308A0121206B308A015C
:10044000212075308A0121203A308A0121203F087D
:100450008A01022040088A0102202C308A012120D2
:1004600041088A01022056308A0121206F308A011A
:1004700021206C308A01212074308A012120380823
:10048000A0003908A100A30186308A01A5208A11A5
:100490000A12031D6B2AFE308A012120C0308A0116
:1004A0002120FF308A01212000308A0121202030C4
:1004B0008A01212025308A01212031308A01212022
:1004C00030308A01212030308A0121200130A30000
:1004D000F4308A0177203808A0003908A100A30170
:1004E00086308A01A520BA003808A0003908A1008A
:1004F000A30184308A01A220BC003A0884003C0891
:100500008A01B820BC00BD0064003C083D048A118B
:100510000A120319A82AFE308A012120C0308A015C
:100520002120FF308A01212001308A012120203042
:100530008A01212025308A01212038308A0121209A
:1005400030308A0121200130A300F4308A01772065
:100550003808A0003908A100A30184308A01A52031
:10056000BA003808A0003908A100A30182308A012E
:10057000A220BC003A0884003C088A01B820BC00D4
:10058000BD0064003C083D048A110A120319E52AE3
:10059000FE308A012120C0308A012120FF308A01EB
:1005A000212002308A01212020308A01212025309B
:1005B0008A01212036308A01212030308A01212011
:1005C0000130A300F4308A0177203808A0003908F0
:1005D000A100A30182308A01A520BA003808A0003A
:1005E0003908A100A30180308A01A220BC003A088A
:1005F00084003C088A01B820BC00BD0064003C08AF
:100600003D048A110A120319222BFE308A0121208F
:10061000C0308A01212003308A01212002308A0162
:10062000212020308A01212025308A0121203430E8
:100630008A01212030308A0121200130A300F430CA
:100640008A0177203808A0003908A100A301803072
:100650008A01A520BA003808A0003908A100A3012A
:100660007E308A01A220BC003A0884003C088A013E
:10067000B820BC00BD0064003C083D048A110A1289
:1006800003195F2BFE308A012120C0308A0121200E
:1006900004308A01212002308A01212020308A0181
:1006A000212025308A01212032308A01212030305A
:1006B0008A0121200130A300F4308A017720380814
:1006C000A0003908A100A3017E308A01A520BA004C
:1006D0003808A0003908A100A3017C308A01A220BB
:1006E000BC003A0884003C088A01B820BC00BD0068
:1006F00064003C083D048A110A1203199C2BFE3049
:100700008A012120C0308A01212005308A01212060
:1007100002308A01212020308A01212025308A01DF
:10072000212031308A01212030308A0121200130FE
:10073000A300F4308A0177203808A0003908A1000E
:10074000A3017C308A01A2208A110A12031DC22B48
:10075000FE308A012120C0308A01212006308A0122
:10076000212002308A01212020308A0121202530D9
:100770008A01212030308A0121200130A300F43089
:080780008A0177208A01E229B9
:02400E00753FFC
:00000001FF
